[
  {
    "name": "single_key_default_sighash",
    "provenance": "Generated from deterministic libbitcoinpqc seed 0x20 plus an independent Python P2MR serializer; the vector signs the manually computed P2MRSighash digest with libbitcoinpqc and does not use qbit wallet/signing/sighash helpers.",
    "prevoutAmount": 1000,
    "prevoutScriptPubKey": "5220035c120ace76c5e69a4c5a9b815418a936e8952964c6dd6374252935bae19196",
    "spendTx": "02000000000101000102030405060708090a0b0c0d0e0f101112131415161718191a1b1c1d1e1f0700000000feffffff018403000000000000015103fd600e435b3e2dd1d565746f149343f1d9a253d0dad87bd8a65d7a84b4ccde5edf49211d0c86d7f31a1a6a1ecfac031bf7fe195d79d97566be2e134e01433d34b3345d13e2d13c68037d560a069aa3160bc90ff1fd0b4c436c94df805e5a490a402af84ba329704bfccb7cc59bfe99a5e7590e6d14900b2c745eea158a5707a09d205be16d8aacd50de25ca183e2f51f4d45a4a6ad2f102e9173e61c090b7b7741c54c897082ef007b65203b53160f518a1efc7f7a5203849c73db9abef6fa912007cb6ff0452eb161a2e06d4f2a76a83237ba59bb3ab891cf1d040cbdb3bd6f4123a09b507e8a048743c5ae37c2a0a4d633a0e2f17234f9a9ac559d78b4807bfd56f417ebad1d2a3eea940110e7af27110639a10cd56bbaf3aca802b1433cba9a93edd34fd2c914cc5f048acda32578450d604db17d4f07e91876d30d5268b77b906666b4e8f7d06c399a40cfc29ed05b1018e817d7f367bc499475b958c4f1c0111b9258b70ce5ef00945d9caba5fd3f2287fd8849da659626e12808e8a95854fe47ece14b65d4b3d2504d0765c16d7233afc8c57faa1462b6e1b2137ffc539b56fc746c182ca8783d434afd49e24606f5f04a4ea5e4c016a36bd5939916643fb1519d40c9348d286a055e0462e5b0fb15a41a0e0e756f0441582e175f47cb6415f79771dd1d8f4dcb1efb1baee924a0c678a30ce20c0e2391e86edc29cc725ca5d2a50cc6851f6cd1db8a3a6a2b997bc6d81590133a140413941629034ccb028f7882eaa3ac30f7af82b40191b5cb3466715b1a44595a186f061ce150e2a3ba5b10bd50eb5dbdd119c0094033d8b666bf899c3fe7154be8d35927bfb10192d3e19d706fa425a441004c7984cfd8540d1421f53056e8e09116feae14c80f37edddcb7c39d72308247bb853d92fbbfce6b81a0709b9a8aff8f8cc70a64578fabf8853a3585737f2576ae8e2a37b2e1e064f5920d03ee8a86947661cdd54053915a5a4b138ccd0a28c5dd852a279188aac4b674402ce12a14a0987ffbd45fffaed2949ac90d2bdc43241f2975fdf1561c15e5dc40c7888c4b7fa791383bdfcfc9abb277693a2ac333c4e9b357d6145af1eecf0ca2d1ca169f41a344b9a1ce1ca1d96b8ee4162d3465779b8b0cfa2fee18e11f709999437662cc42e16f1c73b9262f0add4f1cdd27b06ff9e6a2b7548b7501a61f17954318f7ce36d8ce4a12154def19e55f5f8bb7d51241af856a7d490df83c6847ce19adca4a6f29f2b341126bb295617a7676e5b5831bdc34b9b00bd0fd77089e9d65b140b174190a9a9df3d4a9c13375e8e4243b7f3dfc7f0b86a35a45c90c95cfb734b8c776e190b2271d4aee992f958214626cb774238e089988dab7a3eec73f181820f661eaf3bb84dfa2c9abbe50e4952f9cc1c15df2559c31eb7c21594622ccf09c4d37441308cda36f7dd106db4a191624712bd629935c19ac245913f29a5ce818e6e3908f107c8b733560fc2d9a50919b3a24c84cd69261b0072c8b54bca3d789fae73173e3d4ca4caa0f1813bc09d87af44c53d5dc21bce8a7d6878fa1fa414f005ba3342d7a1862ed3c34f91304b4e9e1673a38a58576772112bec5d3e53d6a865069ccd385a5d6f5a87737d19dc45a88fd45d69732bae46dd42e002bc2bda36255edde9df3674504a155d968a12e7a1e81daee5c322b366498087b01e7bc4a00cf0681dccd5aa0ac6566286f375d5264b055b22669243f85ecd59cac7220d37ae5393d910a67ee1bca35587ae9afd261af878435f2dcd376239891ceedb642c5ac9444682da6b66e9041775ce05bfd5f3f22a891bb7349b27a875395ef0b32eef8c59876fe2302450f42e10147589f46cd0daa5213f2767370acd8fcb6bb3593796876ce9ee06c99b288ef6d132d664fd6c9863c8759d313c4bab099cee09354fbf8a749024aac803fb431a54665446a9b0445e415b4b83b12866f8c7a5573c93ae7d3e68ef201f18ad7c8ea54f17d49ba3ff60f7d147586900b0dc1c0406f20bfcff71a16d84c561cc6bd78888ca8569eaa0876413c29b109fcbea909337c03a690a68400e978489253efc6f1c6cc08951cad3d33ee8d9a714a90a31e68055101ddd05767ec53d5e5e0890775b0a7d26579bb3d2d3087ee05539013f0f053b82935345cfe1995869e5c489158be5e162cc7fefba1a61dc5e1f3188accaf65664755819025a56891709989ee82b17dd71a43c5f1bc5d2128f1ae51f67db7647785cd5e5dcbbdfe6179f1e1b5c82ee7cf73fbb59e2b9f49dbb91884dda51be2b8625697b028a4a4461439e1fff718cb35d8534807bd7664fda4d045a8a49b797ff0e85b7be052e6268400dc475aa8f1fb7c49f2d5e26dd07d5ae1fe5ade9658acbcb1fa1d71dbbb1a8c02cdd3fd33539baf85229177c3f04b2861a9f2b274f5d4fbdd81e8b7cd9ab887f1daf3bf61faf5bdd9b7cf5ce62d35a2b751226dd2da5a799ddb04ae1ac369c62da2ba2b7a930b54cfbe123bdcfff3161c0c00ddde4f0dd6ea3171aa65f9f11ee292618dff90df7db747845439c712761a332bef09de07258ce5681db31cfb6b8bf763481600098c54f45e032b080c25ee6595665aed858e6698378796527de72a4ce053385e8d82177c25f510433b75e7f6a7562f475a062dbc31da2618600b757dddf31d0abe9bafc37a19ba90e0d675eae7ebb92cd436fc63ac308092b8885e6ff53441cb5ecf8a39821d95458b2d0d4133465c3eeafb4cf67595b4a8ce1e6f35fbcb39c7e6d7659535d185a3f3ecb13664715e09e09b3209ede098c187d4d73689bab0a44123b3b8e1cfe55e7ab494efb47582a5ee6e5872d39aefd056167db4c00c0e83f6462d49369075f0a6af7df26cf79b9618cbc1cf1a92b73737cb64043ff507932194bf73010fdc344a7158754895eb093f6bb229aa27ca171d85e948b97de5f4edcc635fc35bc7765c46435855c01e2a31e1bca51a34b04359f1c6ed64678f51355fdcb59ac79309529732ef4b15c94630e288c01997f2a6c4a28ebd1fb68c1223f78f545d5c50f176e6efeba161d6b6ea877597ae01b9ee0143f33bbbe97f46cfd589ee6f26fe4295a4482b0d0a3821d8b22a85955efc6ba5593fb5dddd35c06da906874855cb6614f2de9e9eb3a5a47258c4c208a2eaeb8b3d262ad2d468f8b4268788d04b49b81a94f34b034311df9af4be71d11e5a56491a482a86a3286900928c34279855969021935afeaaf3cef34e90130a2836138ba029701c6d22b54e54651a5806d95b779d9e2bbaa339447c8253ca44bb42ac52ba79c5d00bc44e819120dcf8491eb9011c1713a618df833c936d5f341c0f5c17c22b436027914bc40897eef3050cbaa53e724116b0abd52caaac74f25bc3285e5a99277516241b1138fedb250e3a517faec97c0984bc7b5c11465af5489f2c0de8950a2380de22c38ef0299a53d7c450ac6db6da3d5b83c15e55aa9850f416832e3e6fdd0da3dda0ef1af2eec14349554a5b1a779856ec0424e130a90e715703bf26a43ab86e7fb99383687f1949752d9a5c461ea07377be1cb447c667e49ecbe9bb09ec309110a1085ae67a19076c4102f6da7796415c04dc07e9a77d4dd62ed2626fff2a41bb73c2c493b38e948b37f3ac080466d7268aea240345f690d561c14345400c12d6c15d99cc2d0c067c31753871c461eb408bf09e36fdaed98fadd567c8dbff1d2ec69055fbff51c4f95829b90c4b7033df74d219ac995a7d31c796d4d06c6947355a0c6ebe9c370cfb1bd77c6d3a71638cef8f4ecf1a32012ffb84103d19042f5d7f025cd21be117ce8267842c94f2729bf77c5077fd5d829c5eba6cabfb1f68be91b4f918d76d075957b1eec433b96a82a4d6b2b084c2ba81d1a8b611de8d3860cdad5359bd872282181d3f65c7f19bb2d6165843ec1ba3ca3741edf9b0425f7bcbd442b298f4d37700ecd991a4351fdec6649b44ca702d5902e4b5f9f356845d4e5611197c8878bc771dbe29419d9ff434add2534b25c46aa6f17457fdb7ad9bb4d744614abddd8313caf0aa915aa4d1df1ce0879cd6fd9d14206e1dbe2f2c499e20021886784b690afc5b27fd7718e6c9ef06f9d4b013960da0a6e61f0e9bf1e33fa6ce8671c86a59c3f31100dcb65335715e26229f9d603582a79251988a4f154455a56ed7149b5c67ebb9ed141140b5ba68c886e1e281c6f3fcd924f739c53dde7c2c3f61320880d303d1c2d23d1ce5fd2b70f0c7c4e93c686ee117315a64f767d97fbc98e5a548a122942df8d4b72e0d25f421e1d0e3c846ed79b6f1275ab5e0ffb6e4429e61ff6a4b76e4668cd60b8e21fcf109243e74bffdbb30a8bf6d41a84a3a2913d5b7b3b4fea2e2247d47285beb82b04acae1b3dd560eebb2562c53bb17ee9f0ea4383b9c0538b45742774df405d7c306cbebe89b8fc84ffb9024b7006c1fae874bc06ca222ee97f994905791b88084429f4b4d08e83cd2549132af9cb35e5a8a68527540479fd0151438d3e90ea53d27e1cc3d6dfe17bcaeb9fe9070edcacaa64eba0fb9de263fd9a9960e4031e1ac2ea7986cbbc2446c5578061822fd6992b271a251ab3d43dcb2d7b95fecd0df7c84e9edc420d269200894ae1a45d10df84bf6c05e0cde6173bb9520e772f9c0ae0f6a19d6117e79ebd0e2bdd616646235dbcded4fdf84edeb6622ac65cceac87d9889aceab56b733b081d5f37c6d8f456958e40f13da43cf0808b60e647b0fa10ca19d64ba2e62736f3135b213235808e69faa3e26fa09f97d7019bfdbf5afec5d2a9fd67e11a4851770b70bd0721700d2826c25bb00b11704a44fa584d5d0bb6ffeb7d63f20b0a457fccf0606da1f790e7c398ea70c92eeefe91db10c671eec237afebd953a8806b9deca600fdb23af26e0527a3ad9a513f88164786e8a1cf2d5a8c9a56d263b3157ba9ec270295f9abd3397d9bd144e7d3c91dafbf6c6dc54f3ccf7d0f1fce7171be8e8bc1e62dd16da9ca1378653c0e3faa84c057f46f4457f06c3a2c3af9937d21150c1716da6e7a15fa144c85015f77e2399a05ae5b0ba5d1df9ae6508af4d71c3f75a6982de955dbae00abe26bffbe361973a605625c3e596534b429170ea69f33e700080a59c0e54584dfecee2ba27a9b9a57ea5aba7b2beadcd3440c9cee339d28cd7d99a7466d57029a6ddda4c18753398430479a57e44e49bd9ba2220537c10d6c631c982c5a6a90ae9b93e2ef6661d1d02371b3d55d8f505e6135dfdb301c100000000",
    "leafVersion": "c0",
    "leafScript": "20537c10d6c631c982c5a6a90ae9b93e2ef6661d1d02371b3d55d8f505e6135dfdb3",
    "controlBlock": "c1",
    "pubkey": "537c10d6c631c982c5a6a90ae9b93e2ef6661d1d02371b3d55d8f505e6135dfd",
    "signature": "435b3e2dd1d565746f149343f1d9a253d0dad87bd8a65d7a84b4ccde5edf49211d0c86d7f31a1a6a1ecfac031bf7fe195d79d97566be2e134e01433d34b3345d13e2d13c68037d560a069aa3160bc90ff1fd0b4c436c94df805e5a490a402af84ba329704bfccb7cc59bfe99a5e7590e6d14900b2c745eea158a5707a09d205be16d8aacd50de25ca183e2f51f4d45a4a6ad2f102e9173e61c090b7b7741c54c897082ef007b65203b53160f518a1efc7f7a5203849c73db9abef6fa912007cb6ff0452eb161a2e06d4f2a76a83237ba59bb3ab891cf1d040cbdb3bd6f4123a09b507e8a048743c5ae37c2a0a4d633a0e2f17234f9a9ac559d78b4807bfd56f417ebad1d2a3eea940110e7af27110639a10cd56bbaf3aca802b1433cba9a93edd34fd2c914cc5f048acda32578450d604db17d4f07e91876d30d5268b77b906666b4e8f7d06c399a40cfc29ed05b1018e817d7f367bc499475b958c4f1c0111b9258b70ce5ef00945d9caba5fd3f2287fd8849da659626e12808e8a95854fe47ece14b65d4b3d2504d0765c16d7233afc8c57faa1462b6e1b2137ffc539b56fc746c182ca8783d434afd49e24606f5f04a4ea5e4c016a36bd5939916643fb1519d40c9348d286a055e0462e5b0fb15a41a0e0e756f0441582e175f47cb6415f79771dd1d8f4dcb1efb1baee924a0c678a30ce20c0e2391e86edc29cc725ca5d2a50cc6851f6cd1db8a3a6a2b997bc6d81590133a140413941629034ccb028f7882eaa3ac30f7af82b40191b5cb3466715b1a44595a186f061ce150e2a3ba5b10bd50eb5dbdd119c0094033d8b666bf899c3fe7154be8d35927bfb10192d3e19d706fa425a441004c7984cfd8540d1421f53056e8e09116feae14c80f37edddcb7c39d72308247bb853d92fbbfce6b81a0709b9a8aff8f8cc70a64578fabf8853a3585737f2576ae8e2a37b2e1e064f5920d03ee8a86947661cdd54053915a5a4b138ccd0a28c5dd852a279188aac4b674402ce12a14a0987ffbd45fffaed2949ac90d2bdc43241f2975fdf1561c15e5dc40c7888c4b7fa791383bdfcfc9abb277693a2ac333c4e9b357d6145af1eecf0ca2d1ca169f41a344b9a1ce1ca1d96b8ee4162d3465779b8b0cfa2fee18e11f709999437662cc42e16f1c73b9262f0add4f1cdd27b06ff9e6a2b7548b7501a61f17954318f7ce36d8ce4a12154def19e55f5f8bb7d51241af856a7d490df83c6847ce19adca4a6f29f2b341126bb295617a7676e5b5831bdc34b9b00bd0fd77089e9d65b140b174190a9a9df3d4a9c13375e8e4243b7f3dfc7f0b86a35a45c90c95cfb734b8c776e190b2271d4aee992f958214626cb774238e089988dab7a3eec73f181820f661eaf3bb84dfa2c9abbe50e4952f9cc1c15df2559c31eb7c21594622ccf09c4d37441308cda36f7dd106db4a191624712bd629935c19ac245913f29a5ce818e6e3908f107c8b733560fc2d9a50919b3a24c84cd69261b0072c8b54bca3d789fae73173e3d4ca4caa0f1813bc09d87af44c53d5dc21bce8a7d6878fa1fa414f005ba3342d7a1862ed3c34f91304b4e9e1673a38a58576772112bec5d3e53d6a865069ccd385a5d6f5a87737d19dc45a88fd45d69732bae46dd42e002bc2bda36255edde9df3674504a155d968a12e7a1e81daee5c322b366498087b01e7bc4a00cf0681dccd5aa0ac6566286f375d5264b055b22669243f85ecd59cac7220d37ae5393d910a67ee1bca35587ae9afd261af878435f2dcd376239891ceedb642c5ac9444682da6b66e9041775ce05bfd5f3f22a891bb7349b27a875395ef0b32eef8c59876fe2302450f42e10147589f46cd0daa5213f2767370acd8fcb6bb3593796876ce9ee06c99b288ef6d132d664fd6c9863c8759d313c4bab099cee09354fbf8a749024aac803fb431a54665446a9b0445e415b4b83b12866f8c7a5573c93ae7d3e68ef201f18ad7c8ea54f17d49ba3ff60f7d147586900b0dc1c0406f20bfcff71a16d84c561cc6bd78888ca8569eaa0876413c29b109fcbea909337c03a690a68400e978489253efc6f1c6cc08951cad3d33ee8d9a714a90a31e68055101ddd05767ec53d5e5e0890775b0a7d26579bb3d2d3087ee05539013f0f053b82935345cfe1995869e5c489158be5e162cc7fefba1a61dc5e1f3188accaf65664755819025a56891709989ee82b17dd71a43c5f1bc5d2128f1ae51f67db7647785cd5e5dcbbdfe6179f1e1b5c82ee7cf73fbb59e2b9f49dbb91884dda51be2b8625697b028a4a4461439e1fff718cb35d8534807bd7664fda4d045a8a49b797ff0e85b7be052e6268400dc475aa8f1fb7c49f2d5e26dd07d5ae1fe5ade9658acbcb1fa1d71dbbb1a8c02cdd3fd33539baf85229177c3f04b2861a9f2b274f5d4fbdd81e8b7cd9ab887f1daf3bf61faf5bdd9b7cf5ce62d35a2b751226dd2da5a799ddb04ae1ac369c62da2ba2b7a930b54cfbe123bdcfff3161c0c00ddde4f0dd6ea3171aa65f9f11ee292618dff90df7db747845439c712761a332bef09de07258ce5681db31cfb6b8bf763481600098c54f45e032b080c25ee6595665aed858e6698378796527de72a4ce053385e8d82177c25f510433b75e7f6a7562f475a062dbc31da2618600b757dddf31d0abe9bafc37a19ba90e0d675eae7ebb92cd436fc63ac308092b8885e6ff53441cb5ecf8a39821d95458b2d0d4133465c3eeafb4cf67595b4a8ce1e6f35fbcb39c7e6d7659535d185a3f3ecb13664715e09e09b3209ede098c187d4d73689bab0a44123b3b8e1cfe55e7ab494efb47582a5ee6e5872d39aefd056167db4c00c0e83f6462d49369075f0a6af7df26cf79b9618cbc1cf1a92b73737cb64043ff507932194bf73010fdc344a7158754895eb093f6bb229aa27ca171d85e948b97de5f4edcc635fc35bc7765c46435855c01e2a31e1bca51a34b04359f1c6ed64678f51355fdcb59ac79309529732ef4b15c94630e288c01997f2a6c4a28ebd1fb68c1223f78f545d5c50f176e6efeba161d6b6ea877597ae01b9ee0143f33bbbe97f46cfd589ee6f26fe4295a4482b0d0a3821d8b22a85955efc6ba5593fb5dddd35c06da906874855cb6614f2de9e9eb3a5a47258c4c208a2eaeb8b3d262ad2d468f8b4268788d04b49b81a94f34b034311df9af4be71d11e5a56491a482a86a3286900928c34279855969021935afeaaf3cef34e90130a2836138ba029701c6d22b54e54651a5806d95b779d9e2bbaa339447c8253ca44bb42ac52ba79c5d00bc44e819120dcf8491eb9011c1713a618df833c936d5f341c0f5c17c22b436027914bc40897eef3050cbaa53e724116b0abd52caaac74f25bc3285e5a99277516241b1138fedb250e3a517faec97c0984bc7b5c11465af5489f2c0de8950a2380de22c38ef0299a53d7c450ac6db6da3d5b83c15e55aa9850f416832e3e6fdd0da3dda0ef1af2eec14349554a5b1a779856ec0424e130a90e715703bf26a43ab86e7fb99383687f1949752d9a5c461ea07377be1cb447c667e49ecbe9bb09ec309110a1085ae67a19076c4102f6da7796415c04dc07e9a77d4dd62ed2626fff2a41bb73c2c493b38e948b37f3ac080466d7268aea240345f690d561c14345400c12d6c15d99cc2d0c067c31753871c461eb408bf09e36fdaed98fadd567c8dbff1d2ec69055fbff51c4f95829b90c4b7033df74d219ac995a7d31c796d4d06c6947355a0c6ebe9c370cfb1bd77c6d3a71638cef8f4ecf1a32012ffb84103d19042f5d7f025cd21be117ce8267842c94f2729bf77c5077fd5d829c5eba6cabfb1f68be91b4f918d76d075957b1eec433b96a82a4d6b2b084c2ba81d1a8b611de8d3860cdad5359bd872282181d3f65c7f19bb2d6165843ec1ba3ca3741edf9b0425f7bcbd442b298f4d37700ecd991a4351fdec6649b44ca702d5902e4b5f9f356845d4e5611197c8878bc771dbe29419d9ff434add2534b25c46aa6f17457fdb7ad9bb4d744614abddd8313caf0aa915aa4d1df1ce0879cd6fd9d14206e1dbe2f2c499e20021886784b690afc5b27fd7718e6c9ef06f9d4b013960da0a6e61f0e9bf1e33fa6ce8671c86a59c3f31100dcb65335715e26229f9d603582a79251988a4f154455a56ed7149b5c67ebb9ed141140b5ba68c886e1e281c6f3fcd924f739c53dde7c2c3f61320880d303d1c2d23d1ce5fd2b70f0c7c4e93c686ee117315a64f767d97fbc98e5a548a122942df8d4b72e0d25f421e1d0e3c846ed79b6f1275ab5e0ffb6e4429e61ff6a4b76e4668cd60b8e21fcf109243e74bffdbb30a8bf6d41a84a3a2913d5b7b3b4fea2e2247d47285beb82b04acae1b3dd560eebb2562c53bb17ee9f0ea4383b9c0538b45742774df405d7c306cbebe89b8fc84ffb9024b7006c1fae874bc06ca222ee97f994905791b88084429f4b4d08e83cd2549132af9cb35e5a8a68527540479fd0151438d3e90ea53d27e1cc3d6dfe17bcaeb9fe9070edcacaa64eba0fb9de263fd9a9960e4031e1ac2ea7986cbbc2446c5578061822fd6992b271a251ab3d43dcb2d7b95fecd0df7c84e9edc420d269200894ae1a45d10df84bf6c05e0cde6173bb9520e772f9c0ae0f6a19d6117e79ebd0e2bdd616646235dbcded4fdf84edeb6622ac65cceac87d9889aceab56b733b081d5f37c6d8f456958e40f13da43cf0808b60e647b0fa10ca19d64ba2e62736f3135b213235808e69faa3e26fa09f97d7019bfdbf5afec5d2a9fd67e11a4851770b70bd0721700d2826c25bb00b11704a44fa584d5d0bb6ffeb7d63f20b0a457fccf0606da1f790e7c398ea70c92eeefe91db10c671eec237afebd953a8806b9deca600fdb23af26e0527a3ad9a513f88164786e8a1cf2d5a8c9a56d263b3157ba9ec270295f9abd3397d9bd144e7d3c91dafbf6c6dc54f3ccf7d0f1fce7171be8e8bc1e62dd16da9ca1378653c0e3faa84c057f46f4457f06c3a2c3af9937d21150c1716da6e7a15fa144c85015f77e2399a05ae5b0ba5d1df9ae6508af4d71c3f75a6982de955dbae00abe26bffbe361973a605625c3e596534b429170ea69f33e700080a59c0e54584dfecee2ba27a9b9a57ea5aba7b2beadcd3440c9cee339d28cd7d99a7466d57029a6ddda4c18753398430479a57e44e49bd9ba",
    "p2mrSigMsg": "00000200000000000000bf1c5b99265539a4a5d67bf181d33066224377be83b5d155d7111c64bf15fb74921ac7f259f864606624eb7fc29124712ff65b425e9500a35dd32b71ddb9332c740aa505e462d5249a32e712525163c279f60b4e1ba5c7eaca128c09fe066b12b4248c210a2905b94345e1a8414d0e12efcfb2f4f0f2397159a71283397a0ccd256d27ab4c0ee59ccd8c64521521d350c2349c328e0da0b06f825b9428688d570200000000035c120ace76c5e69a4c5a9b815418a936e8952964c6dd6374252935bae1919600ffffffff",
    "p2mrSighash": "26d672d274423170bcf41186853636c6e2aa2258565120e60c8d18e8076ae032",
    "wrongDomainSighash": "f787568de3c2c78a494b341388140d892026c1dcbb225bc629dcfda9bb2a7930",
    "wrongDomainSignature": "cf82f4bd2c29aecb9a2d511c4e7c6c3f09a17f84cdb9bdc7cb840ae0b70791eb3b87d0e5b992260c751ab73b20defb42eb0d6d340426ae776f47bff869466f6c1ad0cb1bc6dc533dc9648ffd26101ab5161082637ae84a3fc0b870637b9c5eca57f998dd12f4f4dfc38b19d2e0b44d1fb9469748ec6e3f4f36eeed1de5d98a9d8b7359c5585246f11fc6852daebe1170a0ba4ac8b174a5fc6910d78687dee7760dbb59898a1c06303ee106be4d335f7a8f2fb40e5cedecf2417e05e647eaf8f5e70c08354a5d2535b8a37b67c4cacc60956af6f01ff191fc53ddb600e64a1bd560a5dec95053f62d219044a8b2149c9333928488bd1a434e0b26c59234dea8e040a7d8da222bcb3c99d000d2057ea94f81a5e33a61b45335d342a7f55d23f9bbb24268a702bfd43279765ecf878448b1207d4cbd43638db12ca59cff45d407e024fc39805a356c6187620560af957ef7dd4399531efeedb0d3181efb9edc0e44293335ba4fbcd14b773940c61bf986deb3995c7a0e4f63e53bed49b797ffe45931ef0d092711e8dc56442d1b02c8704582eb134fc1050d075626790877d8bc83ec4b34bfeb4d496766c409717ebf1320c88f208be73762751df7b18963399aca2d1580c40af529f96bdb01092409272efc40e7eac14c0b68d60dc8727d6ccd679329d024d027f76372237921c4da1bd8a527d645ec05015798f416bcaf8288bcbbcaefc6833a1317c933ff2fa38280c71ce1ad733f4c0afcc44b0e19204da5ed30a1ef4f8f84e2ccb5e03246018f82914df22b42d28a05a91812e29ffa74003e755861776cc106444bcd5c19ff593cf6dd21b5d042d1cd81de82da6a80e86adad50caed88601ee8abec88ce5e700a2f7c190b560b2904b101403022225eea985fc4ea197a79a0360d87af3c0c7a921505a7ff8d7bc5720eeda432c765ea45a9ebb3ee92de2e45d070f7a3d240caceb5e4c663f4b5d593da8e7588152bf09d744a88df91eb0d90275275b0810c9384c909e3ad016c7042c1c31008d07a55e915c05a59fa0ccaa3f48f461c6e94289d41588393833ee1538d70677c69c2eb32c404f9d4a0aa67a2cb8cd9a2e30382b4e30a699532784217f5b3e53306a6e2e8a9acc70c58bc8de4a96c1334c913f1b1eeca8e03ba3c379056f2e72d311751cfb1eb745ddea0dd2e140c7754dcf2640607dc16aa351c768b977eb5c7194ea5ebcaabe0234e6c5cd4f03e120250142f82036835f521016c53b8e73357d29f47ad13bf770554a64aafc40bc5b18560f47d7010f282f1f4708f2767b8317cde26dc1a640ab61f557cde7d8f3cd7c6373f6879a9a3c527872bb560608bcb95eb754d0eaabcabbac9f48229b75c4c40d87687f274e96b62b33e79dcc65c225fea74a0fda881043de510e215c0fe24f04b928c56d935eb268450ba2d8927611dae13225e65fd4030b6ca3a51c164de0faa8127a3407b5fc86041639d06ff5d1911b96cba0ae84581d192d8023c0bada6c39f13da32f348d493f6d8ffbbbdce3e0d21face41e59fc4304d91143a8459363ea29b5e845512a7a342fa9693af342a7c1d6d40b48bb85782bbafbe087843a597ce854337fad2b520cb31fe7d672cfea0876cee23138740258d1e1c2c8ba095840707587ab71baf601ba205edbba90fdea52b927be33c2adbdcaf332432dc53c7b46b5b08a168eb181fffc0aee8134be237c2be5c9538ebab1e151089f85555c7e91c2ad0e44de061fe714d65414e8b2b43b665893c75ba16a7bfe80e48a35d0b4e4d908beb75ab6b06ea62ef3ed622ec4ecf674b55d8cb280834203a7f765d4685ff15fc567ca533e0bffec2127f42496c5ab43828e83f55d5a890c3158957ff38080c7a3cab5a279b2594c417cacdd8f03d87296f763fd8f778ac201ab4dccc4f10c69966dc11180cf3c2b5800245c2e56208238265c52b8af89c6b0adbc9312b376459d1117625c245dd24ed205852bc4694cc387da54d211b3fe7328fab3ecbe1654571f0df9a3225b99666c17b1be71929128cca3c6374c6bac22f695305119343b6b635e9cc269fbaed53cc4a8004b81257c85768221955c359327622bf405d4afde83da85c1b08cb83fade71311e664b8ca6b769cbb0f74601e14ec623e13fddda346a595392820849df6a53b40a196e3894bca30f56e6a4f32074922f01e00874b5c5d886942d68952b29f4b6f53d755bf7a45ddab74d9106e867db0daf4ffce31f7b6157f0cce30c495c8d173df75c4f32275fd5c93db25a4ece09f247dbfbb6235cc2d6f9838de830fefe1395a03320cd194c342ca0d057b66769049648ab064057e13487cb89c8abd56d08bc4adbd27f08dc89da0acb71c79422838e9d266c002fbac98c9f7afacbddfe02f94fdfa7fdb3cd75119a90f368d4ee4945d205e7a23ecd8dbf468daf8e098bffdfa267bf0545283c76721615792809a3712119f6f3e84da3b21c730c5c7b4a721005b34b813b794fd44c7cc311360807442c7944cec4f9f230fc0cb7ce98accd7feb37a890c26b9306bb5c7dd9a65f52f75e641cf0dea7cb8d5bcf8f8d34a9ddaffeaa22e2c63715efc44916c680ae54ca05d74033fe2892cfe3db7d7748a76378745a532ed2ff912195c7bfd159251f75f58a75bfab887c32556b2ebe99f03e8e6171d11d1190c6980e104ce11a11c1854369adb27e5b44299a40fe9cf6ca30b97b56ac85cad837d80aa53ee1a4c60665afabd26540f0875625386050ec77198ac4459ed182a15ce8da4906c991421ca2ddd9fc5633a28b3cc533ef23bbd4e626d9eace27a2c6bd38a62c8e83bd8d269375ee598cb70b9cf1215dea3295c287c87f653189d505334cd847678105b559435659a7173a5ed4e5584594b75098d91a2056f13d7a0f45085631e4b6216156ac93df31945fb22a82efe728f7107837fa222c32ecf46870181026326842045c7bc83b30b901289ad92102cc16f6c2af03e179d925e38645183d147a6c97fb97b3da73844a84dc07fc8b8e0b08c015583cf804a86f20052e3e89e06280811cf415d2d2203311705641705c45beaa48ec2c61b36243e6344aa71215c669c7f100be1f019300c50fdd0d6e8ec532e1c7364ea831c6e752bc4e19e986a16af15c19ff03e22c2da9c36a90a3a7ea9f60fa47c0295e83979504c81ffd8d1f1d9948564c2b4854a723ecd79e11557648bfb6856216f640d3681f671836ee44fa3a5a36ee2cd4096b715371c5ccafaddfa74ad1c1785f56b3d2dcf4e0e54885f4005b854b29955912d288b298fe5206daf77ec746412bbac3c4e924ee7c48334ca2e8ce659c0e28a9f978ce5552a067ad3f45a7ccecb3bdae746dfb0e00dadb85772c4536184dbd7a8576a6d8e99a7be9306bcb6fb593c918100c7a4fadbb01c54814c9565203505a4e95bb30d5ba8367fd00d27cbcc59353a745b78619230561cdcfeb88f46a16f42c6602fc17acb57fee77485283413c00b69b4b14d29532c27e6cec55e9578b5a6a6a48e726071586391f4e2fa5a74c44f7777d8f7b7c8433af43f89a1ed9e09f55d6e569479685ecf3ad30ea76373a6ac41b052a5dfcb0788c5b279c9c347408123f96a9a95adb1d806ec4a1003c28c043a467b7a9991ac021cdfe0d50ec33fa880f47f394c6f80001b0c9d2c1e5f42cb7e2d732c4ccc0a962cfc6e184dbbe088ac8fd98d52ff6c17ec20ea35407c5fc179dcd1b004102fd8bfebc3362f6825d2c6fb556b90e64b0f2ede8cf665f54b19733a419d14989b5c752d16813aed2147ccdecb0fb9b4b4d886c810fa96dd4a8818740c7fa552f101ea8fb8463d5d3a65a0e33a24157929e79ee5a7ec48e47c842bf09b1d6b53e5e17cbd19824816b42917b478542d86ef3b351adda8c87549101db95ceb3b508a317f20a2fd4d736d3182ebf3b11331fda69eb96acbf42f3caca5efd9176127bb311fec74800c0362c78d5fd63a60a0a8558dda1336b8339889f783e40af84220fd0eb69c4daae3b74ed6787d3a72532740c06306473a7f7b3431419866e664b53af85c27721c63306f3858a45cdd95dcff15723d274c1cdb39a1c2372d3498101cb2b78dd5b5f420aa3efdc70e7b93f12fb2d41b30f867abe4b9adb114c4fdd38050dce7394bfd45488f11c6484f719c1cd7048bd12e25557cba812b87fdd05a525e161263ff8be1c903ce960788f87e5c07fbdaac37808709d1c5c5f3097abf38b0f101f2352d62be6b25a478d050799e51f3b9e779c7d1aa89bdea834ad248840c6c112af4f6f390c471e5ff4b1a4f57e91456a86d6440c1f6bde5fd7fa8728b4b6377238f5d1e3580fe922e15c61962327953121a0c26618926485c33f7193e2ecbdbdd4b8b4d43638fa22ea2b6f8336a703d649fdc2cee0db9bc835c67bc30f4a853bf20fd5344a240fd20aa84a88e8e3fce99db01ab19ec9e13ecef5fc364bbd17042290d079591fff2af2abef05477c2a124d51e18b35903806596ae4b933315d6d6c8760b3fc840e635aa7f9c7e9b592558f4f66a3a25fab3b081cd81cdb12dff39f7854ed07c980ce19aa021e0e329f5b0e80dfc3b49b96ef7cc22851b76e3884b243ea5f031ce25dd7faaccdea439884d9f17be0fb7c6b6dc7d5788f312368d31ae1c8dde843001c3edad1671941e5ab0a4587ed7b626a3f5f0a030612e5438c262f73bb153ec21acf0ec61c230e05c4de03d09d0adddddb6b1dee8931e153dd6a1a301f66b8901104e2fc02db7f03d0e2b00eb6ff8fe699b1c62e8e1a431d7d0b41d0e9331b93992584781b0d1a167de0023854a6f8323e616f18837a45c846f9a39ea3f64ea565c0bea0a9f1ddc42a4b96e985b70128adbe705c7ff5e497fa82b5e18c6672f3f0abd64f701c3060db7f32c5a4c365a55bd451bd82bdb4017fa2f65c67009c01c9d948bae65bd22160468a9341dc8eaa068dc459f98a0d21b0504b474497e5725dce9895c38aa2dd04f0a77cdfc983a4c6ad9ffd1949e77578bf3bbfa3fdb9b4281486647082a00eb2d26a2b4b3875779ac5cc54e8326168643abe92a525e12706e26efc311b5cf45c433e6b579fc049147708acad2ddc0f3619b1897740de927d977ca5384baaf1ee26ad07691734b496cd2e29652d37af5ac2ad0fbeecdc6bf301c314a3259c55ea71bbc622deb49ec65087f5639ac75c84c2673a14c7085245c090898241807485bb7bb",
    "wrongPubkeyLeafScript": "20527c10d6c631c982c5a6a90ae9b93e2ef6661d1d02371b3d55d8f505e6135dfdb3",
    "wrongPubkeyScriptPubKey": "52206aeb95ed327de371c4e6b4a8072b4f3599e981a55440459ef1cde34f8317b2fe",
    "dataSigProvenance": "Generated with qbit-libbitcoinpqc Rust API from 128 bytes of 0x20 entropy. dataSigHash is computed independently as sha256(sha256(\"QbitDataSigPQC\") || sha256(\"QbitDataSigPQC\") || messageHash), then signed with libbitcoinpqc. dataSigScriptPubKey commits to sha256(sha256(\"P2MRLeaf\") || sha256(\"P2MRLeaf\") || c0 || 22 || dataSigLeafScript) with control block c1; no qbit signing, script, or P2MR helper was used to produce these data-signature fixture fields.",
    "dataSigMessageHash": "4848484848484848484848484848484848484848484848484848484848484848",
    "dataSigHash": "d9f39a1a0a8acc8147f683da6e063d060a287e9c959d613ac537dbd06a10c532",
    "dataSigPubkey": "ff39b4fff5f270b8f8ab3f45cb830aae5962993b0c839087550bef40903f571e",
    "dataSigSignature": "a58183bd61a73e1cfa6b93d78dbea702221cae4bf6f912035c5b67a4f2d6cfce8336025bc44aa26f5c9226307d343845a9388d8180aa86a2eb0eb5b058a483da51575b3f17a2731706ba20b8678b164774c99b77199dcc9a755db325bae5a8d7a81910e04d7e05569119a651a2df4e1da86044353c36d72d790f361c05f84b853a3bd3fe5b59f2f96adc8b6148d335ace2067d10dc59dbf8cccb4bebf5a06d87908b8f7bc27f8b7c780a2424f0e526e9f52fee8f1e84e816fc0a2cedcea46316484ec1a0ab818aff84cce4cc1b0329ceb4a802f22b576797071972911a8dc6a9deb11482c3fb95628bc8664432d00685dba232d97bbd1e35b503eb2286e53f3291df02100f8e61cf29bae25e64bdb233d03d99f0459fc798646e6be3331df1076620ab1891530813bfaf387f523c14bb6ae37312ef66da287d662cd22ee9e017937edf9850754ee187689cce43f40602d53ad03749843a533ef4c51ea407fe38aec74b401e0c5e9afd9603134357e54be0b2ce8a19b985e7da02fe020ea7c12e28a65c1028638b92ac42f4906fb964c78f3e8dd3e030d53cce6ed79a8e774765eb8d1fed6c4d64b8b8a139b77937800e055376bdeb35f361874e426bbf851a6e7e5598d94ef672e74f87c3cc3f730a145a44d61c44b8b6a5332febdee79b984340fac8763481990bc1fa6022652fcfd0462e7f638c75b49ac1b4b99f6e177f8addbba57d76ac0f08cd1c190465aa00837234c9ab31c6773b8d92be0e59d1e58878323b6193327332a906489fa8c38f902fb85bfaccaf61a5413d3549a8a71d8963101a01d7cb3415dd43532810a7841c8065f8dbefa791391f7124e288a173a02e68f5c47c92d6ca31db1f3655d4c567168386adf177fbdd21b9770a594e49f37181352fea8bd7ef99f4ca75ed683db1d582410eab9af2c53a37412bd26eea3f288b59080f53e9804ded55a2e971360972dcc0435716b7c19982d884db6f0deb57b68bd95c2812b23e15d70e768a2792d4d69867b9bfe3dfa30fd93f584777e10c6f8e102f4ac37cd80fd45ff224ef37f60f45074989c0314c8b6949e01f9e04cc1b744b9d3563bcbcfd09d818bcad4e4c30b8d3120fdb700191ac20f846778e9489fdc831175ecc6098a318550ed07958b98159cf6ed7e69e610e5703a7a796031dfd39c9d6c922d71975e4764374e960dc882db48b5a89d139618b8f625ca1d1dc06a48ceba615449e0320f72773583d437e104f4c2cd775dfbade88d684bccca977e4893efb75180ad4fbb18fa2e98329aca8b6624800352d1752359c0c029881edbb3ddfe745c12b3472af9b52a61e4d70804bf483d363cc4bdcafbdfeeed97ac68b10ed36595da4df64e83514a761f81fb279632da34488e168255d6e33b6169414223117881ffafde626546da8bc5ac8cc50b7f807cf4d6547c8aaaf5bc864e20cb5245f7272c1cbeee3474edd3b65efe2492a066f153baae07ba3875159b9921ccc4085ef881199ec9ad0339c03e5d1b3ddb1f8f5c05a118af184857b36fc3e9e54119d2e4bbf4b3f0cfb1051dd754bd87d481c34e353dd98355a1b50b6c7c21e48b17e0bc81e027f38f38adf8a8827c1ae9ef96a824faaffc6d281f5920f4c403181d27239ef5c73b2f54f18d10d3415b34703908aeb244366d9664310658e5cdf4e7fb104203dbd09949b2437e3bf8859fc9bc29347ce8b465810ffc41970d3a64a094a5e9eacd2aab12b4674e29e6d6dede3c5c18b418715553e9b25b9e62f91fe0f2fd2b634f6f5ab01b75a21372973e396571363d9035f46e6be54516fa4b252f0f087e5fc763ac43f97a1b2069e779951e6d2e9b8f38f7a9a70212e57265cc60e7d3f08f70ac9c341e43faf6ecceda7341369b1f05f896b0de7d8fc9f30da3f89487e32247b204c1f49e54994d5b07f2f55651e6186beff535b389b5a6448726ae5dcd1fcdcd75b6810370f8d9898f593d9623f3b24885c1d8d66eaee86ddbc6f67d61e8e5cc0de65da68dcc782314020d151d4bc50a133b36563f1fc6be7ebc77a0b46877286bccbbfaab4ad0a936ef976b07771926d3307b585e3c07c57cadb375ec3e558628da3d0ac8c755247b0655acab52e24887abe70be8ce9c2849cf99c7eaecf25b3ec985f8182a8523492fef55476c7c30836cf022acd30ba03cb3d35d65ac3c17ba8c563b70f93d91df6774854f1c263cbe8ccd25a623626228f5433426beebf185c4f2a6fb9cb62e46ee95403bd047f625cf605cc3873b86f58a2a8f66730dfa353ddbfa278d54d659530bb216cecdc5ddcc359e4a7197ac6772363f8301239b141717f9e0c17ad51dfe01ef21507147b538330c1f0dd06de6ce5472398a2f11227859f82ba42158d39b91ddcb92181be03afcd938e0ecdb3b7b4888ddb69a5068089ee908110a25a6bdefc6af2d9a3b625dd70f73569cf0bd1e7d15c59c06f475d99e3de69f2bb1269ecde730c2b70e21bd2743ec652885070e5bd303d56a0c48ec6cc54d7d5021801d14a0756e8f9195e1556f4ddb1484c05d151a2ff09485dd2a4ada957d1a7db7436197cc9ff1f3c65c987319dd243aeddb5375c70d2cce3ec0d41a43c80ec58e5bf3aed9d8c3d95ae79f12eb18477550c906a28590bb4098b42db1209255fbcd70e89deb607fb2c6947049b078dca342151fa035e4b282666d595260d0b4b4ad615a38c4241eaf6ed94072b681fa8ad7e8e384d216523e7e14f946458d5e4d0dff0ac80c7f97c54cb14817c0afaae5ab63878ca76f77568221a9146ce00c2ec6d234aa6038dfb4bec3c01edb497cccfc385068c8881d4687660936a3ea15aa5a8176995f9d65358b48169ed128469069c067afd7338322963209755276bc13e4e3f023760df507b7aa9ca953b5e23da37a95a4ce837e4b5481cdacc542ad99899dff8f39eb4e688e5e85a53ae5d501aedc575b88b79dcc606fc5663af4e4e6574ea336e600f31af0d09998040d3ac8b29b5017f7f0bf41d84985323b46323ac7dcefe44a09e056a470083599b268969e256b36dd97a6b2bec8f277d4f3b51409397f4a98c23ab94f8ccd68ac636ccabb49a8043daf61e610ee60add61e34d72083e9d72cf64b6fd4f53ac2c8f584ea0a3eb8197520b6f266e21a1879a9b9441a0e1a3b9d3748fcca1af181142a6cda2b1ebe692fb33ccaf166c4d9f1536ac5acea1b185059cc35a8323eb5f5e1f83e0cc0817ae9e40b5d5eb2e9f4621f95a32ef50e67a6c2af1a5dc1ba429927be3ed5454237ba9bd16bb523cfa22514e8afe925cb378893caa06ed07239280e84c19d881b35de4457f6286fe46f0f3586297487f91df66ddfd72967e26dc78d189bcebd9cf6c305273d0ffec3f1532ce52fb5477e7d95d21a5b81b9b191f9276ccdb4fc6f0ffd33ec7b12846419e275b0b03d84159b1b97835deb3da64fb50bc60fc90af8d685c4224a97d48c538ee7ea2a9fed6698ad541b3bf0e7e6f8d0dab88f5bdf79f159539f30da209d8bdb7405bf32b385b263114291adcb964f7493f933d8761d2692853d2b518d28b6bc6e38234f77a019a9f08b285616a97296cb808688f122d49e2f4fb9a80933be143bc323fd37370def76358aa733b37df097f5515c74efcd27b8b9bd0edc17c26744d0160b4c3077488ec9457128a426841614b25257c98fd4cf7bc67810758398fe1450dba1a77852821a80a68958ebe312f5dbbd62378135117388f62a0f61dab67dec0259b7213e56787a424149aedcf80d456411541e49daf1693527ecca8031513294410b1c5f33daffc40f2b185be58200a5c59ef7d2dba027480995b67621bdcfd1450080cf8b3e243f76eb903754b7cfe2aa2c9f4e0c6b0049417b957e36baa5f17abb2cba6ece28e6686e913298c163d63371c8e14b4f39238d074d602929f5ea68c2e09f2389b29546b300a6c7c49be0794710ac8bf39421819c5c7672b4bd70f7d0d8749a845de838abaa158d7c51be469bbf8cf204f24f3ca9ecc1e498d04c0f2286c70282fb11c8ee17721fcc4bed3cb45456a71fedb176b769e28e2da03e46ac67f0604b560e19b3a2b7699bb05fe0ebdd0fcb1492c2ccdefe659da6d523b5f3124357834089764cb877e55ab6633b994008eebcd9bb0ac8ba6a21fcfdeae1f140d4622b57c7c3ba5137879963feea33d6675398bea4f1c06678b61769266bca194b40c2b7052e551a83603f2478987928e1a91d20481d79eca6cd6e8a4cb6c3cfc6eb7ea09fc61e29573cf3d3f7866cac1e8c56c843e8771dea65d73a8482e569199c76763a0de50f5e0d29aefe22549f9c30f8fb108d129f9d89d38bb370b3593f4de677f3a18efe499aa671f9864cbc8397cc981aea639de09e4ffc33ea681c752549aefdd4b86918d82d1e191e2642fac11e37a98f58f113d1561b43c6c850437ebcf0d4fc035d0be55370462fb22f26683db7f8fa94e85d60a9ce4956f004816bbf2e8f305067995709cc3e0c8d225261ac9a4cf3f6033b543ffba4bd4e7985d1472d7a493a4275b84bef3a83ad4257caec216e39274e2a172567f92910de1df6bd2d4e60699a1d1d4f6aa9482d5e92df4267b47b8815e00fcd64666bf23cd1f9ca644c1c79758ba2165cf08d3ea299a3adc88ddd9af911db16e1f9a464d3c2c52927fb2986a4e1c8701b0eed9a8d031a24aeaae95bad7d4c8bd506e1a7253bd3267d74b463c41643e2d874ee2cacc4ae77c7ebd39d903fa19cc8da4461782b7d55385b2307b630a03e9afc186417d37fa8f337c58ed22207a46855e3244eb136e4f099dde32855596827f3623f4c879a236b8ec353b479404cf481cf83d936f0ee74902fabaa40ff61ff76f4354d31ee8a68331a090b7166cd534c65acedb6c6a14b3e326165827eddbdc68594cc2dd7f8fbb635d8878d78ee7ffb76279365c12be8ac623de8d68b551dbbe16b8af775846a002c3a109fe80c9d197599dd3dd8e01d5de0d3d0ae8888beca5ff922499bf688c9077ed87068bcab99e0b73d015c85f0461db87499a54bb2de8fc1375b734c0da76e4b17023caed03b37ed21294313eff5a3c1a149868f07ded24eadb3e4df628ff074bd87e0583ffe0cc28496baa57d6cffd8e0dc6722ffbf14f0b7f7f59da5d79aae7e269be10421ef03fba5ce67a20ba210cb50c4f5d83d0143645bf5819317ff3a8451f92dd52b51d837d1582f15060f8dd",
    "dataSigRawMessageSignature": "3ebf43d9174c310b57c665c06d1d16dbf9b90f0dbe5767102385328e3c58c9e0dcd7f96f4564b633fa8f574cba6c335e80087abb72cb5bac0f5143e9890e66581592e51b94a6ce923aed1864570b762aec2a9d605da161e3950e91c5cc3d42fb36b707cee3e6b69484cb61b751a375219b370b634c34be1054ae2236b9e4ef090a91627c6d520ae6531b06ff990f1e70c79ac4bea3a596e3100dc6a12d2a7ff134b09f33b2b443a1b92f42168eb152eabe257f0b72bb2eba04e26a258b32e975affcf59d81453ac00ac1fe11b143d6d155b0dcc80314847ba80158bbad6026737aecc1d8f41df8646f1fc87fd1873fbd309f8e3dc3809efe76ec6ff8dec56744d15bca530ee7a8f803acffa926b7a6d6f01a743d007bc67ccded72eca75234df132216a7788c0be4e2a562af0659b921aee6997d7d50691c649eb55f0e9dc2bcd16fe2bc5ac1afeb7f30bd5d8302d7ae15a8790069ec96c3d48be893d7e8cd968ae582767228a223355697e2e091744e59352a89f54b8588e1f79e68acb93be049c6751917898a898d8b237dc59abce6dd9006da29db1b77f1dbb19629f44ffded7740510df0b367130525eddde89c853d5d8f44600842fe9e4a25c672d59d79b42d8d54c01db9b5cb93ccb1d0a63061eeec9f7c013630f89e57af3153950872241eb1de8517c9688247b13cc8a3e213c11ab82ad41027f95a8de0b49466400af29389720cc40caa7ecfb43098e746e87ed01aad439684ebf8248b1f5dddc451f786d89325ff0f45ae30b3486b4dfe776b71cc8d5fdbe6b59c8130403e6d03953a1cc5e086d690005ca1459652d182fced236e9775654193dfe1b69c0070115e06f0f1a653a7e2e55b1409b9c88d3b2865965e6959ced3536a56558cbed7b0156a321a957c65ea5afd3d39233d902ed447cf1172d7fdde6367fcbadd9fdb8691d6c968560a7b3bebd0e1a93f69b280444518090e86dbf6f520cd63e41bac734dae11c30ab3f96bb8f6406984afa6a7e11c13cf5a32fb5126c93a2eba1e623ef022b1da79e07c73cea8b198beec741a0d5940edd5a236a629a08448f6e8bcf3abb0636196de9e0491f24e36e58ef9406ed29064326ed2a054d7cce58cd911eb80bcda91a92f362e8d0200606f3b5b33f6b530b68b1a21d99f834f24adf67a0a3183bde8c2e2adec5b65bd4cc53cb8f242224ce54b4e5ee08b7a2c49bbc8656aa3bf04e8ffa8bdeb8a8ae076e6bf5ccd403f4c6ef208061560335b7233f3a3e7e8a817a5238386e3c2b27ecfe8d33beb1827c64924bd8881c63cfc11f6a1926397f347e693e4c37a8f3dc417930cf06fac9be510fa0dba4ce636a620847de1103c0c37238667a408cc8e67b62840176b36b69a1e459de496811be809b66a6b0a2726a4b388bd2d131cada4258f4842307b57020821a7bb47fca295a0dba0c702851a26eb026a9ff6cb386192a7ca9ba71b649342c903acdb1d73246e66ca771b617c3934e5e3f158fdffcabdbbfea2b5abceaf717ae4f249b4f7ecc9c680f3cc095f3db2cb1e5cee801b3f51461039be9cf3b07661a8066daf2df80bbce9132694bc78d4c77e0ea93f32e1a7ebc1ffc5c02d0fa83199a2e36d3ffd0326db84dd9e279d40aa72faab5514233f8d43d480dd323ff658b566d2365d18a880b2c0d7dd7cca04b3ab9d4408d8939c94f1e8e82695cb96840d1e13bb24781b18598bd36b71406860cdebc0edb100525ca7c45eb7a7ecd6d0c3991a804f9060cabb0fb05bbeb4572828cc19e6dfac9cafbf2ef2088ca02a58214574cdd43b269dfaaa7c28887153f7664e06de4f56a67cac22b4fc3c4ca93483c9bee96fb5ddd41db6e0b7ecf8715357819d9ffc1df1f6d9934d262edb044723c62b0ab317cab7eddca1c5ec0bc3a088b8da5cd2597209fa3e70c028c70f6d534012be58a828abbae8ce7d9a35d3230b0f0bba83816b162f8e19cb66bbc82ffaaa1d68cca3c46568331d89d6c6015f657ee088fc22caa9f12615382828b913a71740f465a9c0f58f8abee8a20e43d423e67445621fa11d7f2b22d63ee2225076c23eb60f5c6c433a2fc524788d5ca0143394485e47b3869dc6d3e7aee6504da5eabbf80ce9ddb02c924d00d6f4348a64f4c4fc95f1479d6e9fcb304d8269cbc4eb9a305b125aaf11ced804f0cc8cdb4cf16ce208d8139a43140127f41f501581ce1507bcb3c9b309364526ac9d34358307b6ca05ae44ad74539d495d681faad4e6ba79609e644b20f877fd8491754bb7f75ef970607e6e970853363fece8b15213bd436679d5ff58a712117067559d52f0806573f413956678f148ba017c2a99412bae7d1bf3c76c57a91bb4df7ad409f67c21584b9abede2818cedf1d7b4b09fd4b1e8fa719b96e8e7ef2146667f9545826ff3e5081ce34f4e7e148d947a5e684f387de6246e519c2f3702cb6077a78ce41af1c928062de0ec034aaa92a4557f88bb15852cacbc02b59f459c9853d4eaf749dd2db2ff12a8104362c6582942aab319ee6846bfe5ce6e237aa042dc1b3cbc52b03f04605c484b791507d441b18772745b570aa47f41097d588070690de917dc9cc6a107733c16e481a18eaf35b2b818fa89a3329d3849299179d1a3e7ff51de8e25b555dc23637a54b83bbf6e759f7be54656cd364d18b45278b32ff676db3047f34b1aeb1a2f1caffbce2dee74b911b3a70ac18206df80efeb615decdefb527ab66e9d3203be9a264f16d6b61ae4f2f2a7873c42b659070059b8bb7976d87c533885e0cefd252033c5e8cf67addce531a373a361f50e705790cd09aab624b16e008aa7adbf0268826b624fbf2dfa54795c915e15823688dbfee59c8f1599b882b897562d0effdf605300ddedafc8fa745e80c0b601fb0880669d4899982e2d56a5fcdab6e4ab73de2e20fa25a95af16851d9de47d96a65ffa40022c7a0065bb1c931a25211a3681d993a64eb9485f106adbfb674ea87b65179af835fa30e4b6c6821366ec9d4ae9423c92716b28e8123083f9bf3e8df55e35a8d0b1506ffdb1548e4c6faedd23ac94798abef6217b5d3d48da08a8bafcbb1bf5c105e4ce730c630571b068da8287c6e283dc7627877425e8afe88d5142176f72b3974120241e5cb1928ba46edb53dea4cd98edd4d736b5197c23e3ced356042151aea2c0f826b50fa6caeca645f83426dc99e6f34d0a61b811d6ca53fd5428dd8d92695c71bc9bf9e7a783b9f99c785d51257129759c3b2f89b40979874b5f9dfde2577d1dc4db5cc0a84bbd6c5d7f5f327cea8aaadf069b215e1a87fce460bbfedf8d3a25e35780d9b0014e04b64fecfe4e208f19786e7fc331ef139d0a9587aaaa98e46a7105269bef554e50e253d47c6681aa18db3d9ddd6c4853101c39b4d80c469cbec2760d0e3cbd4bf72fabe4a26cc22e48b298e63b62d86c9188fd9e2f0083f946be5e39a5d8dc6b347bd87b14fd73469fd8375f2fd65e83bc901e9c084334a0611d3f7766755a81a598cea4ae62f1fe02f37c04bdca6804201d155e4332179bef0a9cfaf3aaceb2dac5208821eaa447ecf06a3502c28a242b450381b7e1a16f879d96d08fcff14de1157cf3f06ff018acde39ec1f5eecf97f1900c4bbb60d2f41ce99adcd4d580bc7fbc9f593329f04e70e229246a388354e7ab33fdb5748f6dbb7fa164a98f589de9b2c2d1214e5ee79c4033f6f7a7fb9858c338224dbd195e2d23045a00279f23480848158987a10c8ae14e06d76fb47cbe4a22d36f7e7af5035672d79d4be20e8e6288412d3499df67d0b4f995cb3ac3238eb44f60bfa2ee0ca2e4da82a11f3239fc415a0afcebd11378b0464e21a73a0f3ce6601251b525f13a85882feb875ae46e9cda245c1a9914578f3a50d5721af604f2db5af3cd4f05824f75057642c7bf10fd8a56076ab3f77d4648d24dc439545c2c21a89ad295fe827c7ba73ddd8c4781fb6d8f61aeda45bea9bc6f30dfdadb296e5697f6934e26c23e7ca44b7d7133e9ce68c5330448944d1ec5ddefba1fd5b08b69587f67a443c60b436e542de5adf4e9484285577749aeb2d50a6ad290176d81743c4e3f620bb64aa3f556c0fba210184850bf4793dc35edd6a43b37a07fb5a9457827dc5b58dbda1f8637a54a1a883703c51ecee5e398ac80026f6407989363934c4baf01c5cf366bee7e65dedc1245e819d2808644329dde06605c55ed8ffc24341dc3bff0ee5544a288ab762010defd97c4856ee4181d9d36c4f2d076e99082204a8eb1e58aabfa6a94138b64064eede5b6210151798fdbdd4f817db655d7bd3a784bc3f498f841ba6dc4585ca540fe5bdd49ede0bf566a8cc0eab2fceea92decf450585d6dc1f407e1761d5d0f57bd5c775cabd3eaf896727dec17022a5a5f69bf9b727d97e0662ef60a596a8ab5afd3640d58d1bb834cd90227edaf26a1db035e8b7af1ccf9bf71167f9dc4c512ccc52ed27b733ba68b0df7dfa9d37e518b2be2f524942acc72439cf7129bd6c2bb707592b0e290f44a917d4d6197bed8ddec8d87a415565a531dcdd60a94de70c8a966da254afba0c30e191800acde3cfcf8b8a11e32d589d6452ddb8e079e4b2ba77b7dd7d072a1dab6df742537e19e0fa763ce8ffce1641c1f6286918b7f578e75ce564b9f784202324c753710a2621803eccbd55c1063b085798ebe7fa9351e26ef2a73d95036904353b5f88dcce23bcc1b0a1a512d054afd470423ad9648020afb91efc4aedbe8313da63e07eb0899caee68b8924e2c53719d221d9f5b8f990bb9fcd24289d85c0a101f91d29ac45d439f27c2de308d970b20c1f279dd42d012a72612ab7518567285779a02ab029a12f4c03d1258b4f5ecacffed67bfe872f8915204a95fd8418dc90ec31f15fb2d020217259ffa438fbe8a7a03e2aa66d8ade502d6acc3e3f2303c8c20b461565e35c88d81c71105f4a2886c907e629e491c925f64f29b5c1676fef8aad6cf9923beb2b7a5471b02aafdd2f2b677a99cf07c4ebc58ce876a34a368e1f55bceaed7a0fad81899ce73910d4915f8df90dab242cf869689da26a3ea0e4a5456f70fe86116419b6d2b0c1e1a8d41a9ad6069ac4a5bdedcb63e6c7a8670c346b03c6317c95f24a89277a2f4e9dda915df022fb656fb13ebba5bbec65c6b54d8f3b39554709e8e56c10fdb5213426cb5fd4aa1a6ab7bb2b0bbd2d6d765ab98b27c1",
    "dataSigLeafScript": "20ff39b4fff5f270b8f8ab3f45cb830aae5962993b0c839087550bef40903f571ebc",
    "dataSigControlBlock": "c1",
    "dataSigScriptPubKey": "52200590ddf99c72408a92d561d0f756422274c70cd82f6ed7e3113cd143cdad5914",
    "dataSigWrongPubkeyLeafScript": "20fe39b4fff5f270b8f8ab3f45cb830aae5962993b0c839087550bef40903f571ebc",
    "dataSigWrongPubkeyScriptPubKey": "5220ee4710dd20c29559aa0bcbff4c15e7ca19415a5f3efe72627be33d649bc60505"
  }
]
