[
  {
    "name": "single_key_default_sighash",
    "provenance": "Generated from deterministic libbitcoinpqc seed 0x20 plus an independent Python P2MR serializer; the vector signs the manually computed P2MRSighash digest with libbitcoinpqc and does not use qbit wallet/signing/sighash helpers.",
    "prevoutAmount": 1000,
    "prevoutScriptPubKey": "5220035c120ace76c5e69a4c5a9b815418a936e8952964c6dd6374252935bae19196",
    "spendTx": "02000000000101000102030405060708090a0b0c0d0e0f101112131415161718191a1b1c1d1e1f0700000000feffffff018403000000000000015103fd600e435b3e2dd1d565746f149343f1d9a253d0dad87bd8a65d7a84b4ccde5edf49211d0c86d7f31a1a6a1ecfac031bf7fe195d79d97566be2e134e01433d34b3345d13e2d13c68037d560a069aa3160bc90ff1fd0b4c436c94df805e5a490a402af84ba329704bfccb7cc59bfe99a5e7590e6d14900b2c745eea158a5707a09d205be16d8aacd50de25ca183e2f51f4d45a4a6ad2f102e9173e61c090b7b7741c54c897082ef007b65203b53160f518a1efc7f7a5203849c73db9abef6fa912007cb6ff0452eb161a2e06d4f2a76a83237ba59bb3ab891cf1d040cbdb3bd6f4123a09b507e8a048743c5ae37c2a0a4d633a0e2f17234f9a9ac559d78b4807bfd56f417ebad1d2a3eea940110e7af27110639a10cd56bbaf3aca802b1433cba9a93edd34fd2c914cc5f048acda32578450d604db17d4f07e91876d30d5268b77b906666b4e8f7d06c399a40cfc29ed05b1018e817d7f367bc499475b958c4f1c0111b9258b70ce5ef00945d9caba5fd3f2287fd8849da659626e12808e8a95854fe47ece14b65d4b3d2504d0765c16d7233afc8c57faa1462b6e1b2137ffc539b56fc746c182ca8783d434afd49e24606f5f04a4ea5e4c016a36bd5939916643fb1519d40c9348d286a055e0462e5b0fb15a41a0e0e756f0441582e175f47cb6415f79771dd1d8f4dcb1efb1baee924a0c678a30ce20c0e2391e86edc29cc725ca5d2a50cc6851f6cd1db8a3a6a2b997bc6d81590133a140413941629034ccb028f7882eaa3ac30f7af82b40191b5cb3466715b1a44595a186f061ce150e2a3ba5b10bd50eb5dbdd119c0094033d8b666bf899c3fe7154be8d35927bfb10192d3e19d706fa425a441004c7984cfd8540d1421f53056e8e09116feae14c80f37edddcb7c39d72308247bb853d92fbbfce6b81a0709b9a8aff8f8cc70a64578fabf8853a3585737f2576ae8e2a37b2e1e064f5920d03ee8a86947661cdd54053915a5a4b138ccd0a28c5dd852a279188aac4b674402ce12a14a0987ffbd45fffaed2949ac90d2bdc43241f2975fdf1561c15e5dc40c7888c4b7fa791383bdfcfc9abb277693a2ac333c4e9b357d6145af1eecf0ca2d1ca169f41a344b9a1ce1ca1d96b8ee4162d3465779b8b0cfa2fee18e11f709999437662cc42e16f1c73b9262f0add4f1cdd27b06ff9e6a2b7548b7501a61f17954318f7ce36d8ce4a12154def19e55f5f8bb7d51241af856a7d490df83c6847ce19adca4a6f29f2b341126bb295617a7676e5b5831bdc34b9b00bd0fd77089e9d65b140b174190a9a9df3d4a9c13375e8e4243b7f3dfc7f0b86a35a45c90c95cfb734b8c776e190b2271d4aee992f958214626cb774238e089988dab7a3eec73f181820f661eaf3bb84dfa2c9abbe50e4952f9cc1c15df2559c31eb7c21594622ccf09c4d37441308cda36f7dd106db4a191624712bd629935c19ac245913f29a5ce818e6e3908f107c8b733560fc2d9a50919b3a24c84cd69261b0072c8b54bca3d789fae73173e3d4ca4caa0f1813bc09d87af44c53d5dc21bce8a7d6878fa1fa414f005ba3342d7a1862ed3c34f91304b4e9e1673a38a58576772112bec5d3e53d6a865069ccd385a5d6f5a87737d19dc45a88fd45d69732bae46dd42e002bc2bda36255edde9df3674504a155d968a12e7a1e81daee5c322b366498087b01e7bc4a00cf0681dccd5aa0ac6566286f375d5264b055b22669243f85ecd59cac7220d37ae5393d910a67ee1bca35587ae9afd261af878435f2dcd376239891ceedb642c5ac9444682da6b66e9041775ce05bfd5f3f22a891bb7349b27a875395ef0b32eef8c59876fe2302450f42e10147589f46cd0daa5213f2767370acd8fcb6bb3593796876ce9ee06c99b288ef6d132d664fd6c9863c8759d313c4bab099cee09354fbf8a749024aac803fb431a54665446a9b0445e415b4b83b12866f8c7a5573c93ae7d3e68ef201f18ad7c8ea54f17d49ba3ff60f7d147586900b0dc1c0406f20bfcff71a16d84c561cc6bd78888ca8569eaa0876413c29b109fcbea909337c03a690a68400e978489253efc6f1c6cc08951cad3d33ee8d9a714a90a31e68055101ddd05767ec53d5e5e0890775b0a7d26579bb3d2d3087ee05539013f0f053b82935345cfe1995869e5c489158be5e162cc7fefba1a61dc5e1f3188accaf65664755819025a56891709989ee82b17dd71a43c5f1bc5d2128f1ae51f67db7647785cd5e5dcbbdfe6179f1e1b5c82ee7cf73fbb59e2b9f49dbb91884dda51be2b8625697b028a4a4461439e1fff718cb35d8534807bd7664fda4d045a8a49b797ff0e85b7be052e6268400dc475aa8f1fb7c49f2d5e26dd07d5ae1fe5ade9658acbcb1fa1d71dbbb1a8c02cdd3fd33539baf85229177c3f04b2861a9f2b274f5d4fbdd81e8b7cd9ab887f1daf3bf61faf5bdd9b7cf5ce62d35a2b751226dd2da5a799ddb04ae1ac369c62da2ba2b7a930b54cfbe123bdcfff3161c0c00ddde4f0dd6ea3171aa65f9f11ee292618dff90df7db747845439c712761a332bef09de07258ce5681db31cfb6b8bf763481600098c54f45e032b080c25ee6595665aed858e6698378796527de72a4ce053385e8d82177c25f510433b75e7f6a7562f475a062dbc31da2618600b757dddf31d0abe9bafc37a19ba90e0d675eae7ebb92cd436fc63ac308092b8885e6ff53441cb5ecf8a39821d95458b2d0d4133465c3eeafb4cf67595b4a8ce1e6f35fbcb39c7e6d7659535d185a3f3ecb13664715e09e09b3209ede098c187d4d73689bab0a44123b3b8e1cfe55e7ab494efb47582a5ee6e5872d39aefd056167db4c00c0e83f6462d49369075f0a6af7df26cf79b9618cbc1cf1a92b73737cb64043ff507932194bf73010fdc344a7158754895eb093f6bb229aa27ca171d85e948b97de5f4edcc635fc35bc7765c46435855c01e2a31e1bca51a34b04359f1c6ed64678f51355fdcb59ac79309529732ef4b15c94630e288c01997f2a6c4a28ebd1fb68c1223f78f545d5c50f176e6efeba161d6b6ea877597ae01b9ee0143f33bbbe97f46cfd589ee6f26fe4295a4482b0d0a3821d8b22a85955efc6ba5593fb5dddd35c06da906874855cb6614f2de9e9eb3a5a47258c4c208a2eaeb8b3d262ad2d468f8b4268788d04b49b81a94f34b034311df9af4be71d11e5a56491a482a86a3286900928c34279855969021935afeaaf3cef34e90130a2836138ba029701c6d22b54e54651a5806d95b779d9e2bbaa339447c8253ca44bb42ac52ba79c5d00bc44e819120dcf8491eb9011c1713a618df833c936d5f341c0f5c17c22b436027914bc40897eef3050cbaa53e724116b0abd52caaac74f25bc3285e5a99277516241b1138fedb250e3a517faec97c0984bc7b5c11465af5489f2c0de8950a2380de22c38ef0299a53d7c450ac6db6da3d5b83c15e55aa9850f416832e3e6fdd0da3dda0ef1af2eec14349554a5b1a779856ec0424e130a90e715703bf26a43ab86e7fb99383687f1949752d9a5c461ea07377be1cb447c667e49ecbe9bb09ec309110a1085ae67a19076c4102f6da7796415c04dc07e9a77d4dd62ed2626fff2a41bb73c2c493b38e948b37f3ac080466d7268aea240345f690d561c14345400c12d6c15d99cc2d0c067c31753871c461eb408bf09e36fdaed98fadd567c8dbff1d2ec69055fbff51c4f95829b90c4b7033df74d219ac995a7d31c796d4d06c6947355a0c6ebe9c370cfb1bd77c6d3a71638cef8f4ecf1a32012ffb84103d19042f5d7f025cd21be117ce8267842c94f2729bf77c5077fd5d829c5eba6cabfb1f68be91b4f918d76d075957b1eec433b96a82a4d6b2b084c2ba81d1a8b611de8d3860cdad5359bd872282181d3f65c7f19bb2d6165843ec1ba3ca3741edf9b0425f7bcbd442b298f4d37700ecd991a4351fdec6649b44ca702d5902e4b5f9f356845d4e5611197c8878bc771dbe29419d9ff434add2534b25c46aa6f17457fdb7ad9bb4d744614abddd8313caf0aa915aa4d1df1ce0879cd6fd9d14206e1dbe2f2c499e20021886784b690afc5b27fd7718e6c9ef06f9d4b013960da0a6e61f0e9bf1e33fa6ce8671c86a59c3f31100dcb65335715e26229f9d603582a79251988a4f154455a56ed7149b5c67ebb9ed141140b5ba68c886e1e281c6f3fcd924f739c53dde7c2c3f61320880d303d1c2d23d1ce5fd2b70f0c7c4e93c686ee117315a64f767d97fbc98e5a548a122942df8d4b72e0d25f421e1d0e3c846ed79b6f1275ab5e0ffb6e4429e61ff6a4b76e4668cd60b8e21fcf109243e74bffdbb30a8bf6d41a84a3a2913d5b7b3b4fea2e2247d47285beb82b04acae1b3dd560eebb2562c53bb17ee9f0ea4383b9c0538b45742774df405d7c306cbebe89b8fc84ffb9024b7006c1fae874bc06ca222ee97f994905791b88084429f4b4d08e83cd2549132af9cb35e5a8a68527540479fd0151438d3e90ea53d27e1cc3d6dfe17bcaeb9fe9070edcacaa64eba0fb9de263fd9a9960e4031e1ac2ea7986cbbc2446c5578061822fd6992b271a251ab3d43dcb2d7b95fecd0df7c84e9edc420d269200894ae1a45d10df84bf6c05e0cde6173bb9520e772f9c0ae0f6a19d6117e79ebd0e2bdd616646235dbcded4fdf84edeb6622ac65cceac87d9889aceab56b733b081d5f37c6d8f456958e40f13da43cf0808b60e647b0fa10ca19d64ba2e62736f3135b213235808e69faa3e26fa09f97d7019bfdbf5afec5d2a9fd67e11a4851770b70bd0721700d2826c25bb00b11704a44fa584d5d0bb6ffeb7d63f20b0a457fccf0606da1f790e7c398ea70c92eeefe91db10c671eec237afebd953a8806b9deca600fdb23af26e0527a3ad9a513f88164786e8a1cf2d5a8c9a56d263b3157ba9ec270295f9abd3397d9bd144e7d3c91dafbf6c6dc54f3ccf7d0f1fce7171be8e8bc1e62dd16da9ca1378653c0e3faa84c057f46f4457f06c3a2c3af9937d21150c1716da6e7a15fa144c85015f77e2399a05ae5b0ba5d1df9ae6508af4d71c3f75a6982de955dbae00abe26bffbe361973a605625c3e596534b429170ea69f33e700080a59c0e54584dfecee2ba27a9b9a57ea5aba7b2beadcd3440c9cee339d28cd7d99a7466d57029a6ddda4c18753398430479a57e44e49bd9ba2220537c10d6c631c982c5a6a90ae9b93e2ef6661d1d02371b3d55d8f505e6135dfdb301c100000000",
    "leafVersion": "c0",
    "leafScript": "20537c10d6c631c982c5a6a90ae9b93e2ef6661d1d02371b3d55d8f505e6135dfdb3",
    "controlBlock": "c1",
    "pubkey": "537c10d6c631c982c5a6a90ae9b93e2ef6661d1d02371b3d55d8f505e6135dfd",
    "signature": "435b3e2dd1d565746f149343f1d9a253d0dad87bd8a65d7a84b4ccde5edf49211d0c86d7f31a1a6a1ecfac031bf7fe195d79d97566be2e134e01433d34b3345d13e2d13c68037d560a069aa3160bc90ff1fd0b4c436c94df805e5a490a402af84ba329704bfccb7cc59bfe99a5e7590e6d14900b2c745eea158a5707a09d205be16d8aacd50de25ca183e2f51f4d45a4a6ad2f102e9173e61c090b7b7741c54c897082ef007b65203b53160f518a1efc7f7a5203849c73db9abef6fa912007cb6ff0452eb161a2e06d4f2a76a83237ba59bb3ab891cf1d040cbdb3bd6f4123a09b507e8a048743c5ae37c2a0a4d633a0e2f17234f9a9ac559d78b4807bfd56f417ebad1d2a3eea940110e7af27110639a10cd56bbaf3aca802b1433cba9a93edd34fd2c914cc5f048acda32578450d604db17d4f07e91876d30d5268b77b906666b4e8f7d06c399a40cfc29ed05b1018e817d7f367bc499475b958c4f1c0111b9258b70ce5ef00945d9caba5fd3f2287fd8849da659626e12808e8a95854fe47ece14b65d4b3d2504d0765c16d7233afc8c57faa1462b6e1b2137ffc539b56fc746c182ca8783d434afd49e24606f5f04a4ea5e4c016a36bd5939916643fb1519d40c9348d286a055e0462e5b0fb15a41a0e0e756f0441582e175f47cb6415f79771dd1d8f4dcb1efb1baee924a0c678a30ce20c0e2391e86edc29cc725ca5d2a50cc6851f6cd1db8a3a6a2b997bc6d81590133a140413941629034ccb028f7882eaa3ac30f7af82b40191b5cb3466715b1a44595a186f061ce150e2a3ba5b10bd50eb5dbdd119c0094033d8b666bf899c3fe7154be8d35927bfb10192d3e19d706fa425a441004c7984cfd8540d1421f53056e8e09116feae14c80f37edddcb7c39d72308247bb853d92fbbfce6b81a0709b9a8aff8f8cc70a64578fabf8853a3585737f2576ae8e2a37b2e1e064f5920d03ee8a86947661cdd54053915a5a4b138ccd0a28c5dd852a279188aac4b674402ce12a14a0987ffbd45fffaed2949ac90d2bdc43241f2975fdf1561c15e5dc40c7888c4b7fa791383bdfcfc9abb277693a2ac333c4e9b357d6145af1eecf0ca2d1ca169f41a344b9a1ce1ca1d96b8ee4162d3465779b8b0cfa2fee18e11f709999437662cc42e16f1c73b9262f0add4f1cdd27b06ff9e6a2b7548b7501a61f17954318f7ce36d8ce4a12154def19e55f5f8bb7d51241af856a7d490df83c6847ce19adca4a6f29f2b341126bb295617a7676e5b5831bdc34b9b00bd0fd77089e9d65b140b174190a9a9df3d4a9c13375e8e4243b7f3dfc7f0b86a35a45c90c95cfb734b8c776e190b2271d4aee992f958214626cb774238e089988dab7a3eec73f181820f661eaf3bb84dfa2c9abbe50e4952f9cc1c15df2559c31eb7c21594622ccf09c4d37441308cda36f7dd106db4a191624712bd629935c19ac245913f29a5ce818e6e3908f107c8b733560fc2d9a50919b3a24c84cd69261b0072c8b54bca3d789fae73173e3d4ca4caa0f1813bc09d87af44c53d5dc21bce8a7d6878fa1fa414f005ba3342d7a1862ed3c34f91304b4e9e1673a38a58576772112bec5d3e53d6a865069ccd385a5d6f5a87737d19dc45a88fd45d69732bae46dd42e002bc2bda36255edde9df3674504a155d968a12e7a1e81daee5c322b366498087b01e7bc4a00cf0681dccd5aa0ac6566286f375d5264b055b22669243f85ecd59cac7220d37ae5393d910a67ee1bca35587ae9afd261af878435f2dcd376239891ceedb642c5ac9444682da6b66e9041775ce05bfd5f3f22a891bb7349b27a875395ef0b32eef8c59876fe2302450f42e10147589f46cd0daa5213f2767370acd8fcb6bb3593796876ce9ee06c99b288ef6d132d664fd6c9863c8759d313c4bab099cee09354fbf8a749024aac803fb431a54665446a9b0445e415b4b83b12866f8c7a5573c93ae7d3e68ef201f18ad7c8ea54f17d49ba3ff60f7d147586900b0dc1c0406f20bfcff71a16d84c561cc6bd78888ca8569eaa0876413c29b109fcbea909337c03a690a68400e978489253efc6f1c6cc08951cad3d33ee8d9a714a90a31e68055101ddd05767ec53d5e5e0890775b0a7d26579bb3d2d3087ee05539013f0f053b82935345cfe1995869e5c489158be5e162cc7fefba1a61dc5e1f3188accaf65664755819025a56891709989ee82b17dd71a43c5f1bc5d2128f1ae51f67db7647785cd5e5dcbbdfe6179f1e1b5c82ee7cf73fbb59e2b9f49dbb91884dda51be2b8625697b028a4a4461439e1fff718cb35d8534807bd7664fda4d045a8a49b797ff0e85b7be052e6268400dc475aa8f1fb7c49f2d5e26dd07d5ae1fe5ade9658acbcb1fa1d71dbbb1a8c02cdd3fd33539baf85229177c3f04b2861a9f2b274f5d4fbdd81e8b7cd9ab887f1daf3bf61faf5bdd9b7cf5ce62d35a2b751226dd2da5a799ddb04ae1ac369c62da2ba2b7a930b54cfbe123bdcfff3161c0c00ddde4f0dd6ea3171aa65f9f11ee292618dff90df7db747845439c712761a332bef09de07258ce5681db31cfb6b8bf763481600098c54f45e032b080c25ee6595665aed858e6698378796527de72a4ce053385e8d82177c25f510433b75e7f6a7562f475a062dbc31da2618600b757dddf31d0abe9bafc37a19ba90e0d675eae7ebb92cd436fc63ac308092b8885e6ff53441cb5ecf8a39821d95458b2d0d4133465c3eeafb4cf67595b4a8ce1e6f35fbcb39c7e6d7659535d185a3f3ecb13664715e09e09b3209ede098c187d4d73689bab0a44123b3b8e1cfe55e7ab494efb47582a5ee6e5872d39aefd056167db4c00c0e83f6462d49369075f0a6af7df26cf79b9618cbc1cf1a92b73737cb64043ff507932194bf73010fdc344a7158754895eb093f6bb229aa27ca171d85e948b97de5f4edcc635fc35bc7765c46435855c01e2a31e1bca51a34b04359f1c6ed64678f51355fdcb59ac79309529732ef4b15c94630e288c01997f2a6c4a28ebd1fb68c1223f78f545d5c50f176e6efeba161d6b6ea877597ae01b9ee0143f33bbbe97f46cfd589ee6f26fe4295a4482b0d0a3821d8b22a85955efc6ba5593fb5dddd35c06da906874855cb6614f2de9e9eb3a5a47258c4c208a2eaeb8b3d262ad2d468f8b4268788d04b49b81a94f34b034311df9af4be71d11e5a56491a482a86a3286900928c34279855969021935afeaaf3cef34e90130a2836138ba029701c6d22b54e54651a5806d95b779d9e2bbaa339447c8253ca44bb42ac52ba79c5d00bc44e819120dcf8491eb9011c1713a618df833c936d5f341c0f5c17c22b436027914bc40897eef3050cbaa53e724116b0abd52caaac74f25bc3285e5a99277516241b1138fedb250e3a517faec97c0984bc7b5c11465af5489f2c0de8950a2380de22c38ef0299a53d7c450ac6db6da3d5b83c15e55aa9850f416832e3e6fdd0da3dda0ef1af2eec14349554a5b1a779856ec0424e130a90e715703bf26a43ab86e7fb99383687f1949752d9a5c461ea07377be1cb447c667e49ecbe9bb09ec309110a1085ae67a19076c4102f6da7796415c04dc07e9a77d4dd62ed2626fff2a41bb73c2c493b38e948b37f3ac080466d7268aea240345f690d561c14345400c12d6c15d99cc2d0c067c31753871c461eb408bf09e36fdaed98fadd567c8dbff1d2ec69055fbff51c4f95829b90c4b7033df74d219ac995a7d31c796d4d06c6947355a0c6ebe9c370cfb1bd77c6d3a71638cef8f4ecf1a32012ffb84103d19042f5d7f025cd21be117ce8267842c94f2729bf77c5077fd5d829c5eba6cabfb1f68be91b4f918d76d075957b1eec433b96a82a4d6b2b084c2ba81d1a8b611de8d3860cdad5359bd872282181d3f65c7f19bb2d6165843ec1ba3ca3741edf9b0425f7bcbd442b298f4d37700ecd991a4351fdec6649b44ca702d5902e4b5f9f356845d4e5611197c8878bc771dbe29419d9ff434add2534b25c46aa6f17457fdb7ad9bb4d744614abddd8313caf0aa915aa4d1df1ce0879cd6fd9d14206e1dbe2f2c499e20021886784b690afc5b27fd7718e6c9ef06f9d4b013960da0a6e61f0e9bf1e33fa6ce8671c86a59c3f31100dcb65335715e26229f9d603582a79251988a4f154455a56ed7149b5c67ebb9ed141140b5ba68c886e1e281c6f3fcd924f739c53dde7c2c3f61320880d303d1c2d23d1ce5fd2b70f0c7c4e93c686ee117315a64f767d97fbc98e5a548a122942df8d4b72e0d25f421e1d0e3c846ed79b6f1275ab5e0ffb6e4429e61ff6a4b76e4668cd60b8e21fcf109243e74bffdbb30a8bf6d41a84a3a2913d5b7b3b4fea2e2247d47285beb82b04acae1b3dd560eebb2562c53bb17ee9f0ea4383b9c0538b45742774df405d7c306cbebe89b8fc84ffb9024b7006c1fae874bc06ca222ee97f994905791b88084429f4b4d08e83cd2549132af9cb35e5a8a68527540479fd0151438d3e90ea53d27e1cc3d6dfe17bcaeb9fe9070edcacaa64eba0fb9de263fd9a9960e4031e1ac2ea7986cbbc2446c5578061822fd6992b271a251ab3d43dcb2d7b95fecd0df7c84e9edc420d269200894ae1a45d10df84bf6c05e0cde6173bb9520e772f9c0ae0f6a19d6117e79ebd0e2bdd616646235dbcded4fdf84edeb6622ac65cceac87d9889aceab56b733b081d5f37c6d8f456958e40f13da43cf0808b60e647b0fa10ca19d64ba2e62736f3135b213235808e69faa3e26fa09f97d7019bfdbf5afec5d2a9fd67e11a4851770b70bd0721700d2826c25bb00b11704a44fa584d5d0bb6ffeb7d63f20b0a457fccf0606da1f790e7c398ea70c92eeefe91db10c671eec237afebd953a8806b9deca600fdb23af26e0527a3ad9a513f88164786e8a1cf2d5a8c9a56d263b3157ba9ec270295f9abd3397d9bd144e7d3c91dafbf6c6dc54f3ccf7d0f1fce7171be8e8bc1e62dd16da9ca1378653c0e3faa84c057f46f4457f06c3a2c3af9937d21150c1716da6e7a15fa144c85015f77e2399a05ae5b0ba5d1df9ae6508af4d71c3f75a6982de955dbae00abe26bffbe361973a605625c3e596534b429170ea69f33e700080a59c0e54584dfecee2ba27a9b9a57ea5aba7b2beadcd3440c9cee339d28cd7d99a7466d57029a6ddda4c18753398430479a57e44e49bd9ba",
    "p2mrSigMsg": "00000200000000000000bf1c5b99265539a4a5d67bf181d33066224377be83b5d155d7111c64bf15fb74921ac7f259f864606624eb7fc29124712ff65b425e9500a35dd32b71ddb9332c740aa505e462d5249a32e712525163c279f60b4e1ba5c7eaca128c09fe066b12b4248c210a2905b94345e1a8414d0e12efcfb2f4f0f2397159a71283397a0ccd256d27ab4c0ee59ccd8c64521521d350c2349c328e0da0b06f825b9428688d570200000000035c120ace76c5e69a4c5a9b815418a936e8952964c6dd6374252935bae1919600ffffffff",
    "p2mrSighash": "26d672d274423170bcf41186853636c6e2aa2258565120e60c8d18e8076ae032",
    "wrongDomainSighash": "f787568de3c2c78a494b341388140d892026c1dcbb225bc629dcfda9bb2a7930",
    "wrongDomainSignature": "cf82f4bd2c29aecb9a2d511c4e7c6c3f09a17f84cdb9bdc7cb840ae0b70791eb3b87d0e5b992260c751ab73b20defb42eb0d6d340426ae776f47bff869466f6c1ad0cb1bc6dc533dc9648ffd26101ab5161082637ae84a3fc0b870637b9c5eca57f998dd12f4f4dfc38b19d2e0b44d1fb9469748ec6e3f4f36eeed1de5d98a9d8b7359c5585246f11fc6852daebe1170a0ba4ac8b174a5fc6910d78687dee7760dbb59898a1c06303ee106be4d335f7a8f2fb40e5cedecf2417e05e647eaf8f5e70c08354a5d2535b8a37b67c4cacc60956af6f01ff191fc53ddb600e64a1bd560a5dec95053f62d219044a8b2149c9333928488bd1a434e0b26c59234dea8e040a7d8da222bcb3c99d000d2057ea94f81a5e33a61b45335d342a7f55d23f9bbb24268a702bfd43279765ecf878448b1207d4cbd43638db12ca59cff45d407e024fc39805a356c6187620560af957ef7dd4399531efeedb0d3181efb9edc0e44293335ba4fbcd14b773940c61bf986deb3995c7a0e4f63e53bed49b797ffe45931ef0d092711e8dc56442d1b02c8704582eb134fc1050d075626790877d8bc83ec4b34bfeb4d496766c409717ebf1320c88f208be73762751df7b18963399aca2d1580c40af529f96bdb01092409272efc40e7eac14c0b68d60dc8727d6ccd679329d024d027f76372237921c4da1bd8a527d645ec05015798f416bcaf8288bcbbcaefc6833a1317c933ff2fa38280c71ce1ad733f4c0afcc44b0e19204da5ed30a1ef4f8f84e2ccb5e03246018f82914df22b42d28a05a91812e29ffa74003e755861776cc106444bcd5c19ff593cf6dd21b5d042d1cd81de82da6a80e86adad50caed88601ee8abec88ce5e700a2f7c190b560b2904b101403022225eea985fc4ea197a79a0360d87af3c0c7a921505a7ff8d7bc5720eeda432c765ea45a9ebb3ee92de2e45d070f7a3d240caceb5e4c663f4b5d593da8e7588152bf09d744a88df91eb0d90275275b0810c9384c909e3ad016c7042c1c31008d07a55e915c05a59fa0ccaa3f48f461c6e94289d41588393833ee1538d70677c69c2eb32c404f9d4a0aa67a2cb8cd9a2e30382b4e30a699532784217f5b3e53306a6e2e8a9acc70c58bc8de4a96c1334c913f1b1eeca8e03ba3c379056f2e72d311751cfb1eb745ddea0dd2e140c7754dcf2640607dc16aa351c768b977eb5c7194ea5ebcaabe0234e6c5cd4f03e120250142f82036835f521016c53b8e73357d29f47ad13bf770554a64aafc40bc5b18560f47d7010f282f1f4708f2767b8317cde26dc1a640ab61f557cde7d8f3cd7c6373f6879a9a3c527872bb560608bcb95eb754d0eaabcabbac9f48229b75c4c40d87687f274e96b62b33e79dcc65c225fea74a0fda881043de510e215c0fe24f04b928c56d935eb268450ba2d8927611dae13225e65fd4030b6ca3a51c164de0faa8127a3407b5fc86041639d06ff5d1911b96cba0ae84581d192d8023c0bada6c39f13da32f348d493f6d8ffbbbdce3e0d21face41e59fc4304d91143a8459363ea29b5e845512a7a342fa9693af342a7c1d6d40b48bb85782bbafbe087843a597ce854337fad2b520cb31fe7d672cfea0876cee23138740258d1e1c2c8ba095840707587ab71baf601ba205edbba90fdea52b927be33c2adbdcaf332432dc53c7b46b5b08a168eb181fffc0aee8134be237c2be5c9538ebab1e151089f85555c7e91c2ad0e44de061fe714d65414e8b2b43b665893c75ba16a7bfe80e48a35d0b4e4d908beb75ab6b06ea62ef3ed622ec4ecf674b55d8cb280834203a7f765d4685ff15fc567ca533e0bffec2127f42496c5ab43828e83f55d5a890c3158957ff38080c7a3cab5a279b2594c417cacdd8f03d87296f763fd8f778ac201ab4dccc4f10c69966dc11180cf3c2b5800245c2e56208238265c52b8af89c6b0adbc9312b376459d1117625c245dd24ed205852bc4694cc387da54d211b3fe7328fab3ecbe1654571f0df9a3225b99666c17b1be71929128cca3c6374c6bac22f695305119343b6b635e9cc269fbaed53cc4a8004b81257c85768221955c359327622bf405d4afde83da85c1b08cb83fade71311e664b8ca6b769cbb0f74601e14ec623e13fddda346a595392820849df6a53b40a196e3894bca30f56e6a4f32074922f01e00874b5c5d886942d68952b29f4b6f53d755bf7a45ddab74d9106e867db0daf4ffce31f7b6157f0cce30c495c8d173df75c4f32275fd5c93db25a4ece09f247dbfbb6235cc2d6f9838de830fefe1395a03320cd194c342ca0d057b66769049648ab064057e13487cb89c8abd56d08bc4adbd27f08dc89da0acb71c79422838e9d266c002fbac98c9f7afacbddfe02f94fdfa7fdb3cd75119a90f368d4ee4945d205e7a23ecd8dbf468daf8e098bffdfa267bf0545283c76721615792809a3712119f6f3e84da3b21c730c5c7b4a721005b34b813b794fd44c7cc311360807442c7944cec4f9f230fc0cb7ce98accd7feb37a890c26b9306bb5c7dd9a65f52f75e641cf0dea7cb8d5bcf8f8d34a9ddaffeaa22e2c63715efc44916c680ae54ca05d74033fe2892cfe3db7d7748a76378745a532ed2ff912195c7bfd159251f75f58a75bfab887c32556b2ebe99f03e8e6171d11d1190c6980e104ce11a11c1854369adb27e5b44299a40fe9cf6ca30b97b56ac85cad837d80aa53ee1a4c60665afabd26540f0875625386050ec77198ac4459ed182a15ce8da4906c991421ca2ddd9fc5633a28b3cc533ef23bbd4e626d9eace27a2c6bd38a62c8e83bd8d269375ee598cb70b9cf1215dea3295c287c87f653189d505334cd847678105b559435659a7173a5ed4e5584594b75098d91a2056f13d7a0f45085631e4b6216156ac93df31945fb22a82efe728f7107837fa222c32ecf46870181026326842045c7bc83b30b901289ad92102cc16f6c2af03e179d925e38645183d147a6c97fb97b3da73844a84dc07fc8b8e0b08c015583cf804a86f20052e3e89e06280811cf415d2d2203311705641705c45beaa48ec2c61b36243e6344aa71215c669c7f100be1f019300c50fdd0d6e8ec532e1c7364ea831c6e752bc4e19e986a16af15c19ff03e22c2da9c36a90a3a7ea9f60fa47c0295e83979504c81ffd8d1f1d9948564c2b4854a723ecd79e11557648bfb6856216f640d3681f671836ee44fa3a5a36ee2cd4096b715371c5ccafaddfa74ad1c1785f56b3d2dcf4e0e54885f4005b854b29955912d288b298fe5206daf77ec746412bbac3c4e924ee7c48334ca2e8ce659c0e28a9f978ce5552a067ad3f45a7ccecb3bdae746dfb0e00dadb85772c4536184dbd7a8576a6d8e99a7be9306bcb6fb593c918100c7a4fadbb01c54814c9565203505a4e95bb30d5ba8367fd00d27cbcc59353a745b78619230561cdcfeb88f46a16f42c6602fc17acb57fee77485283413c00b69b4b14d29532c27e6cec55e9578b5a6a6a48e726071586391f4e2fa5a74c44f7777d8f7b7c8433af43f89a1ed9e09f55d6e569479685ecf3ad30ea76373a6ac41b052a5dfcb0788c5b279c9c347408123f96a9a95adb1d806ec4a1003c28c043a467b7a9991ac021cdfe0d50ec33fa880f47f394c6f80001b0c9d2c1e5f42cb7e2d732c4ccc0a962cfc6e184dbbe088ac8fd98d52ff6c17ec20ea35407c5fc179dcd1b004102fd8bfebc3362f6825d2c6fb556b90e64b0f2ede8cf665f54b19733a419d14989b5c752d16813aed2147ccdecb0fb9b4b4d886c810fa96dd4a8818740c7fa552f101ea8fb8463d5d3a65a0e33a24157929e79ee5a7ec48e47c842bf09b1d6b53e5e17cbd19824816b42917b478542d86ef3b351adda8c87549101db95ceb3b508a317f20a2fd4d736d3182ebf3b11331fda69eb96acbf42f3caca5efd9176127bb311fec74800c0362c78d5fd63a60a0a8558dda1336b8339889f783e40af84220fd0eb69c4daae3b74ed6787d3a72532740c06306473a7f7b3431419866e664b53af85c27721c63306f3858a45cdd95dcff15723d274c1cdb39a1c2372d3498101cb2b78dd5b5f420aa3efdc70e7b93f12fb2d41b30f867abe4b9adb114c4fdd38050dce7394bfd45488f11c6484f719c1cd7048bd12e25557cba812b87fdd05a525e161263ff8be1c903ce960788f87e5c07fbdaac37808709d1c5c5f3097abf38b0f101f2352d62be6b25a478d050799e51f3b9e779c7d1aa89bdea834ad248840c6c112af4f6f390c471e5ff4b1a4f57e91456a86d6440c1f6bde5fd7fa8728b4b6377238f5d1e3580fe922e15c61962327953121a0c26618926485c33f7193e2ecbdbdd4b8b4d43638fa22ea2b6f8336a703d649fdc2cee0db9bc835c67bc30f4a853bf20fd5344a240fd20aa84a88e8e3fce99db01ab19ec9e13ecef5fc364bbd17042290d079591fff2af2abef05477c2a124d51e18b35903806596ae4b933315d6d6c8760b3fc840e635aa7f9c7e9b592558f4f66a3a25fab3b081cd81cdb12dff39f7854ed07c980ce19aa021e0e329f5b0e80dfc3b49b96ef7cc22851b76e3884b243ea5f031ce25dd7faaccdea439884d9f17be0fb7c6b6dc7d5788f312368d31ae1c8dde843001c3edad1671941e5ab0a4587ed7b626a3f5f0a030612e5438c262f73bb153ec21acf0ec61c230e05c4de03d09d0adddddb6b1dee8931e153dd6a1a301f66b8901104e2fc02db7f03d0e2b00eb6ff8fe699b1c62e8e1a431d7d0b41d0e9331b93992584781b0d1a167de0023854a6f8323e616f18837a45c846f9a39ea3f64ea565c0bea0a9f1ddc42a4b96e985b70128adbe705c7ff5e497fa82b5e18c6672f3f0abd64f701c3060db7f32c5a4c365a55bd451bd82bdb4017fa2f65c67009c01c9d948bae65bd22160468a9341dc8eaa068dc459f98a0d21b0504b474497e5725dce9895c38aa2dd04f0a77cdfc983a4c6ad9ffd1949e77578bf3bbfa3fdb9b4281486647082a00eb2d26a2b4b3875779ac5cc54e8326168643abe92a525e12706e26efc311b5cf45c433e6b579fc049147708acad2ddc0f3619b1897740de927d977ca5384baaf1ee26ad07691734b496cd2e29652d37af5ac2ad0fbeecdc6bf301c314a3259c55ea71bbc622deb49ec65087f5639ac75c84c2673a14c7085245c090898241807485bb7bb",
    "wrongPubkeyLeafScript": "20527c10d6c631c982c5a6a90ae9b93e2ef6661d1d02371b3d55d8f505e6135dfdb3",
    "wrongPubkeyScriptPubKey": "52206aeb95ed327de371c4e6b4a8072b4f3599e981a55440459ef1cde34f8317b2fe"
  }
]
